:100000000C942A000C943C000C943C000C943C0092
:100010000C943C000C943C000C943C000C943C0070
:100020000C943C000C943C000C943C000C943C0060
:100030000C943C000C943C000C943C000C943C0050
:100040000C943C000C943C000C943C000C943C0040
:100050000C943C0011241FBECFE5D8E0DEBFCDBF1D
:1000600020E0A0E6B0E001C01D92A336B207E1F7A0
:100070000E94BF000C9418020C94000064E081E41C
:100080000E94B20065E081E40E94B20066E081E473
:100090000E94B20061E084E40E94AB00089564E035
:1000A00081E40E94BB0065E081E40E94BB0066E041
:1000B00081E40E94BB00089542E650E061E084E4E0
:1000C0000E94AF00809162008093610006C042E60A
:1000D00050E061E084E40E94AF00809162008130D2
:1000E000B1F380916100813051F4809160008530DE
:1000F00019F41092600003C08F5F809360008091BC
:100100006000811103C00E944F000895813011F0FA
:10011000853061F4813029F464E081E40E94B70005
:10012000089565E081E40E94BB000895823011F0DB
:10013000843061F4823029F465E081E40E94B700E4
:10014000089566E081E40E94BB00089566E081E4C2
:100150000E94B700089540E00E94C40008950E94E4
:10016000B401089541E0682F0E94C400089541E061
:100170000E943C01089540E00E943C0108950E94C5
:100180003E000E945C00FDCF823429F118F48134D6
:1001900039F008958334D1F1843409F452C00895BC
:1001A000413059F42AB381E090E002C0880F991FD2
:1001B0006A95E2F7822B8ABB089541115CC02AB38D
:1001C00081E090E002C0880F991F6A95E2F7809560
:1001D00082238ABB0895413059F427B381E090E02F
:1001E00002C0880F991F6A95E2F7822B87BB08959A
:1001F000411141C027B381E090E002C0880F991FF0
:100200006A95E2F78095822387BB0895413059F4BF
:1002100024B381E090E002C0880F991F6A95E2F74D
:10022000822B84BB0895411126C024B381E090E065
:1002300002C0880F991F6A95E2F78095822384BBDC
:100240000895413059F421B381E090E002C0880F55
:10025000991F6A95E2F7822B81BB089541110BC06B
:1002600021B381E090E002C0880F991F6A95E2F700
:100270008095822381BB0895823429F118F481345A
:1002800039F008958334D1F1843409F452C00895CB
:10029000413059F42BB381E090E002C0880F991FE0
:1002A0006A95E2F7822B8BBB089541115CC02BB39A
:1002B00081E090E002C0880F991F6A95E2F780956F
:1002C00082238BBB0895413059F428B381E090E03C
:1002D00002C0880F991F6A95E2F7822B88BB0895A8
:1002E000411141C028B381E090E002C0880F991FFE
:1002F0006A95E2F78095822388BB0895413059F4CE
:1003000025B381E090E002C0880F991F6A95E2F75B
:10031000822B85BB0895411126C025B381E090E072
:1003200002C0880F991F6A95E2F78095822385BBEA
:100330000895413059F422B381E090E002C0880F63
:10034000991F6A95E2F7822B82BB089541110BC079
:1003500022B381E090E002C0880F991F6A95E2F70E
:100360008095822382BB0895823401F118F4813490
:1003700039F00895833481F1843409F443C0089539
:1003800079B381E090E09C01062E02C0220F331F5A
:100390000A94E2F7872F90E08223932302C0959579
:1003A00087956A95E2F7FA018083089576B381E034
:1003B00090E09C01062E02C0220F331F0A94E2F740
:1003C000872F90E08223932302C0959587956A95A5
:1003D000E2F7FA018083089573B381E090E09C0115
:1003E000062E02C0220F331F0A94E2F7872F90E0F7
:1003F0008223932302C0959587956A95E2F7FA01C7
:100400008083089570B381E090E09C01062E02C0C5
:10041000220F331F0A94E2F7872F90E08223932361
:1004200002C0959587956A95E2F7FA018083089551
:04043000F894FFCF6E
:00000001FF
